{
  "contractName": "Lottery",
  "abi": [
    {
      "inputs": [],
      "stateMutability": "nonpayable",
      "type": "constructor"
    },
    {
      "inputs": [],
      "name": "countdownEnd",
      "outputs": [
        {
          "internalType": "uint256",
          "name": "",
          "type": "uint256"
        }
      ],
      "stateMutability": "view",
      "type": "function",
      "constant": true
    },
    {
      "inputs": [
        {
          "internalType": "uint256",
          "name": "",
          "type": "uint256"
        }
      ],
      "name": "lotteryHistory",
      "outputs": [
        {
          "internalType": "address payable",
          "name": "",
          "type": "address"
        }
      ],
      "stateMutability": "view",
      "type": "function",
      "constant": true
    },
    {
      "inputs": [],
      "name": "lotteryId",
      "outputs": [
        {
          "internalType": "uint256",
          "name": "",
          "type": "uint256"
        }
      ],
      "stateMutability": "view",
      "type": "function",
      "constant": true
    },
    {
      "inputs": [],
      "name": "owner",
      "outputs": [
        {
          "internalType": "address",
          "name": "",
          "type": "address"
        }
      ],
      "stateMutability": "view",
      "type": "function",
      "constant": true
    },
    {
      "inputs": [
        {
          "internalType": "uint256",
          "name": "",
          "type": "uint256"
        }
      ],
      "name": "players",
      "outputs": [
        {
          "internalType": "address payable",
          "name": "",
          "type": "address"
        }
      ],
      "stateMutability": "view",
      "type": "function",
      "constant": true
    },
    {
      "inputs": [],
      "name": "randomResult",
      "outputs": [
        {
          "internalType": "uint256",
          "name": "",
          "type": "uint256"
        }
      ],
      "stateMutability": "view",
      "type": "function",
      "constant": true
    },
    {
      "inputs": [],
      "name": "winnerPicked",
      "outputs": [
        {
          "internalType": "bool",
          "name": "",
          "type": "bool"
        }
      ],
      "stateMutability": "view",
      "type": "function",
      "constant": true
    },
    {
      "inputs": [
        {
          "internalType": "uint256",
          "name": "lottery",
          "type": "uint256"
        }
      ],
      "name": "getWinnerByLottery",
      "outputs": [
        {
          "internalType": "address payable",
          "name": "",
          "type": "address"
        }
      ],
      "stateMutability": "view",
      "type": "function",
      "constant": true
    },
    {
      "inputs": [],
      "name": "getBalance",
      "outputs": [
        {
          "internalType": "uint256",
          "name": "",
          "type": "uint256"
        }
      ],
      "stateMutability": "view",
      "type": "function",
      "constant": true
    },
    {
      "inputs": [],
      "name": "getPlayers",
      "outputs": [
        {
          "internalType": "address payable[]",
          "name": "",
          "type": "address[]"
        }
      ],
      "stateMutability": "view",
      "type": "function",
      "constant": true
    },
    {
      "inputs": [],
      "name": "startLottery",
      "outputs": [],
      "stateMutability": "nonpayable",
      "type": "function"
    },
    {
      "inputs": [],
      "name": "enter",
      "outputs": [],
      "stateMutability": "payable",
      "type": "function",
      "payable": true
    },
    {
      "inputs": [],
      "name": "pickWinner",
      "outputs": [],
      "stateMutability": "nonpayable",
      "type": "function"
    },
    {
      "inputs": [],
      "name": "payWinner",
      "outputs": [],
      "stateMutability": "nonpayable",
      "type": "function"
    }
  ],
  "bytecode": "0x608060405234801561001057600080fd5b50336000806101000a81548173ffffffffffffffffffffffffffffffffffffffff021916908373ffffffffffffffffffffffffffffffffffffffff16021790555060016002819055506000600681905550611419806100706000396000f3fe6080604052600436106100dd5760003560e01c80638b5b9ccc1161007f578063be71248a11610059578063be71248a1461028c578063e580f47b146102a3578063e97dcb62146102ce578063f71d96cb146102d8576100dd565b80638b5b9ccc1461020b5780638da5cb5b14610236578063b37a4d0114610261576100dd565b806342619f66116100bb57806342619f66146101615780634f4b50851461018c5780635d495aea146101b75780636d6fe230146101ce576100dd565b806312065fe0146100e2578063160344e21461010d578063281d098d14610124575b600080fd5b3480156100ee57600080fd5b506100f7610315565b6040516101049190610b66565b60405180910390f35b34801561011957600080fd5b5061012261031d565b005b34801561013057600080fd5b5061014b60048036038101906101469190610bb2565b610405565b6040516101589190610c20565b60405180910390f35b34801561016d57600080fd5b50610176610442565b6040516101839190610b66565b60405180910390f35b34801561019857600080fd5b506101a1610448565b6040516101ae9190610c56565b60405180910390f35b3480156101c357600080fd5b506101cc61045b565b005b3480156101da57600080fd5b506101f560048036038101906101f09190610bb2565b610670565b6040516102029190610c20565b60405180910390f35b34801561021757600080fd5b506102206106a3565b60405161022d9190610d2f565b60405180910390f35b34801561024257600080fd5b5061024b610731565b6040516102589190610d72565b60405180910390f35b34801561026d57600080fd5b50610276610755565b6040516102839190610b66565b60405180910390f35b34801561029857600080fd5b506102a161075b565b005b3480156102af57600080fd5b506102b86109ca565b6040516102c59190610b66565b60405180910390f35b6102d66109d0565b005b3480156102e457600080fd5b506102ff60048036038101906102fa9190610bb2565b610ad0565b60405161030c9190610c20565b60405180910390f35b600047905090565b60008054906101000a900473ffffffffffffffffffffffffffffffffffffffff1673ffffffffffffffffffffffffffffffffffffffff163373ffffffffffffffffffffffffffffffffffffffff16146103ab576040517f08c379a00000000000000000000000000000000000000000000000000000000081526004016103a290610e10565b60405180910390fd5b6000600654146103f0576040517f08c379a00000000000000000000000000000000000000000000000000000000081526004016103e790610e7c565b60405180910390fd5b60b4426103fd9190610ecb565b600681905550565b60006003600083815260200190815260200160002060009054906101000a900473ffffffffffffffffffffffffffffffffffffffff169050919050565b60055481565b600460009054906101000a900460ff1681565b60008054906101000a900473ffffffffffffffffffffffffffffffffffffffff1673ffffffffffffffffffffffffffffffffffffffff163373ffffffffffffffffffffffffffffffffffffffff16146104e9576040517f08c379a00000000000000000000000000000000000000000000000000000000081526004016104e090610e10565b60405180910390fd5b6000600654141561052f576040517f08c379a000000000000000000000000000000000000000000000000000000000815260040161052690610f6d565b60405180910390fd5b600060065411801561054357506006544210155b610582576040517f08c379a000000000000000000000000000000000000000000000000000000000815260040161057990610fd9565b60405180910390fd5b600460009054906101000a900460ff16156105d2576040517f08c379a00000000000000000000000000000000000000000000000000000000081526004016105c990611045565b60405180910390fd5b60006001805490501161061a576040517f08c379a0000000000000000000000000000000000000000000000000000000008152600401610611906110d7565b60405180910390fd5b424460018054905060405160200161063493929190611118565b6040516020818303038152906040528051906020012060001c6005819055506001600460006101000a81548160ff021916908315150217905550565b60036020528060005260406000206000915054906101000a900473ffffffffffffffffffffffffffffffffffffffff1681565b6060600180548060200260200160405190810160405280929190818152602001828054801561072757602002820191906000526020600020905b8160009054906101000a900473ffffffffffffffffffffffffffffffffffffffff1673ffffffffffffffffffffffffffffffffffffffff16815260200190600101908083116106dd575b5050505050905090565b60008054906101000a900473ffffffffffffffffffffffffffffffffffffffff1681565b60065481565b60008054906101000a900473ffffffffffffffffffffffffffffffffffffffff1673ffffffffffffffffffffffffffffffffffffffff163373ffffffffffffffffffffffffffffffffffffffff16146107e9576040517f08c379a00000000000000000000000000000000000000000000000000000000081526004016107e090610e10565b60405180910390fd5b600460009054906101000a900460ff16610838576040517f08c379a000000000000000000000000000000000000000000000000000000000815260040161082f906111c7565b60405180910390fd5b600060018054905011610880576040517f08c379a0000000000000000000000000000000000000000000000000000000008152600401610877906110d7565b60405180910390fd5b60006001805490506005546108959190611216565b90506000600182815481106108ad576108ac611247565b5b9060005260206000200160009054906101000a900473ffffffffffffffffffffffffffffffffffffffff1690508073ffffffffffffffffffffffffffffffffffffffff166108fc479081150290604051600060405180830381858888f19350505050158015610920573d6000803e3d6000fd5b508060036000600254815260200190815260200160002060006101000a81548173ffffffffffffffffffffffffffffffffffffffff021916908373ffffffffffffffffffffffffffffffffffffffff1602179055506002600081548092919061098890611276565b91905055506001600061099b9190610b0f565b60006005819055506000600460006101000a81548160ff02191690831515021790555060006006819055505050565b60025481565b662386f26fc100003411610a19576040517f08c379a0000000000000000000000000000000000000000000000000000000008152600401610a1090611331565b60405180910390fd5b6000600654118015610a2c575060065442105b610a6b576040517f08c379a0000000000000000000000000000000000000000000000000000000008152600401610a62906113c3565b60405180910390fd5b6001339080600181540180825580915050600190039060005260206000200160009091909190916101000a81548173ffffffffffffffffffffffffffffffffffffffff021916908373ffffffffffffffffffffffffffffffffffffffff160217905550565b60018181548110610ae057600080fd5b906000526020600020016000915054906101000a900473ffffffffffffffffffffffffffffffffffffffff1681565b5080546000825590600052602060002090810190610b2d9190610b30565b50565b5b80821115610b49576000816000905550600101610b31565b5090565b6000819050919050565b610b6081610b4d565b82525050565b6000602082019050610b7b6000830184610b57565b92915050565b600080fd5b610b8f81610b4d565b8114610b9a57600080fd5b50565b600081359050610bac81610b86565b92915050565b600060208284031215610bc857610bc7610b81565b5b6000610bd684828501610b9d565b91505092915050565b600073ffffffffffffffffffffffffffffffffffffffff82169050919050565b6000610c0a82610bdf565b9050919050565b610c1a81610bff565b82525050565b6000602082019050610c356000830184610c11565b92915050565b60008115159050919050565b610c5081610c3b565b82525050565b6000602082019050610c6b6000830184610c47565b92915050565b600081519050919050565b600082825260208201905092915050565b6000819050602082019050919050565b610ca681610bff565b82525050565b6000610cb88383610c9d565b60208301905092915050565b6000602082019050919050565b6000610cdc82610c71565b610ce68185610c7c565b9350610cf183610c8d565b8060005b83811015610d22578151610d098882610cac565b9750610d1483610cc4565b925050600181019050610cf5565b5085935050505092915050565b60006020820190508181036000830152610d498184610cd1565b905092915050565b6000610d5c82610bdf565b9050919050565b610d6c81610d51565b82525050565b6000602082019050610d876000830184610d63565b92915050565b600082825260208201905092915050565b7f4f6e6c7920746865206f776e65722063616e2063616c6c20746869732066756e60008201527f6374696f6e000000000000000000000000000000000000000000000000000000602082015250565b6000610dfa602583610d8d565b9150610e0582610d9e565b604082019050919050565b60006020820190508181036000830152610e2981610ded565b9050919050565b7f4c6f747465727920697320616c72656164792072756e6e696e67000000000000600082015250565b6000610e66601a83610d8d565b9150610e7182610e30565b602082019050919050565b60006020820190508181036000830152610e9581610e59565b9050919050565b7f4e487b7100000000000000000000000000000000000000000000000000000000600052601160045260246000fd5b6000610ed682610b4d565b9150610ee183610b4d565b9250827fffffffffffffffffffffffffffffffffffffffffffffffffffffffffffffffff03821115610f1657610f15610e9c565b5b828201905092915050565b7f4c6f7474657279206973206e6f74207374617274656400000000000000000000600082015250565b6000610f57601683610d8d565b9150610f6282610f21565b602082019050919050565b60006020820190508181036000830152610f8681610f4a565b9050919050565b7f436f756e74646f776e20686173206e6f7420656e646564207965740000000000600082015250565b6000610fc3601b83610d8d565b9150610fce82610f8d565b602082019050919050565b60006020820190508181036000830152610ff281610fb6565b9050919050565b7f57696e6e65722068617320616c7265616479206265656e207069636b65640000600082015250565b600061102f601e83610d8d565b915061103a82610ff9565b602082019050919050565b6000602082019050818103600083015261105e81611022565b9050919050565b7f4e6f20706c61796572732070617274696369706174656420696e20746865206c60008201527f6f74746572790000000000000000000000000000000000000000000000000000602082015250565b60006110c1602683610d8d565b91506110cc82611065565b604082019050919050565b600060208201905081810360008301526110f0816110b4565b9050919050565b6000819050919050565b61111261110d82610b4d565b6110f7565b82525050565b60006111248286611101565b6020820191506111348285611101565b6020820191506111448284611101565b602082019150819050949350505050565b7f57696e6e6572206d757374206265207069636b6564206265666f72652070617960008201527f696e670000000000000000000000000000000000000000000000000000000000602082015250565b60006111b1602383610d8d565b91506111bc82611155565b604082019050919050565b600060208201905081810360008301526111e0816111a4565b9050919050565b7f4e487b7100000000000000000000000000000000000000000000000000000000600052601260045260246000fd5b600061122182610b4d565b915061122c83610b4d565b92508261123c5761123b6111e7565b5b828206905092915050565b7f4e487b7100000000000000000000000000000000000000000000000000000000600052603260045260246000fd5b600061128182610b4d565b91507fffffffffffffffffffffffffffffffffffffffffffffffffffffffffffffffff8214156112b4576112b3610e9c565b5b600182019050919050565b7f456e7465722065786163746c7920302e313520657468657220746f207061727460008201527f6963697061746500000000000000000000000000000000000000000000000000602082015250565b600061131b602783610d8d565b9150611326826112bf565b604082019050919050565b6000602082019050818103600083015261134a8161130e565b9050919050565b7f43616e6e6f7420656e746572206265666f7265207374617274696e67206f722060008201527f61667465722074696d65206f7665720000000000000000000000000000000000602082015250565b60006113ad602f83610d8d565b91506113b882611351565b604082019050919050565b600060208201905081810360008301526113dc816113a0565b905091905056fea2646970667358221220f6f654a604d8f84a0deea97327dae538fd2704c327746c5ecd4ab993b65635e064736f6c634300080b0033",
  "immutableReferences": {},
  "source": "\r\n\r\n// pragma solidity ^0.8.11;\r\n\r\n// contract Lottery {\r\n//     address public owner;\r\n//     address payable[] public players;\r\n//     uint public lotteryId;\r\n//     mapping(uint => address payable) public lotteryHistory;\r\n//     bool public winnerPicked;\r\n//     uint public randomResult;\r\n\r\n//     constructor() {\r\n//         owner = payable(msg.sender);\r\n//         lotteryId = 1;\r\n//     }\r\n\r\n//     function getRandomNumber() internal view returns (uint) {\r\n//         return uint(keccak256(abi.encodePacked(block.timestamp, block.difficulty, players.length)));\r\n//     }\r\n\r\n//     function getWinnerByLottery(uint lottery) public view returns (address payable) {\r\n//         return lotteryHistory[lottery];\r\n//     }\r\n\r\n//     function getBalance() public view returns (uint) {\r\n//         return address(this).balance;\r\n//     }\r\n\r\n//     function getPlayers() public view returns (address payable[] memory) {\r\n//         return players;\r\n//     }\r\n\r\n//     function enter() public payable {\r\n//         require(msg.value > 0.01 ether, \"Insufficient amount sent\");\r\n\r\n//         players.push(payable(msg.sender));\r\n//     }\r\n\r\n//     function pickWinner() public onlyOwner {\r\n//         require(players.length > 0, \"No players participated in the lottery\");\r\n//         require(!winnerPicked, \"Winner already picked for this round\");\r\n//         randomResult = getRandomNumber();\r\n//         winnerPicked = true;\r\n//     }\r\n\r\n//     function payWinner() public onlyOwner {\r\n//         require(randomResult > 0, \"Must have a source of randomness before choosing winner\");\r\n//         require(players.length > 0, \"No players participated in the lottery\");\r\n\r\n//         require(winnerPicked, \"Winner has not been picked yet\");\r\n\r\n//         uint index = randomResult % players.length;\r\n//         players[index].transfer(address(this).balance);\r\n\r\n//         lotteryHistory[lotteryId] = players[index];\r\n//         lotteryId++;\r\n\r\n//         // Reset the state of the contract\r\n//         delete players;\r\n//         randomResult = 0;\r\n//         winnerPicked = false;\r\n//     }\r\n\r\n//     modifier onlyOwner() {\r\n//         require(msg.sender == owner, \"Only the owner can call this function\");\r\n//         _;\r\n//     }\r\n// }\r\n// SPDX-License-Identifier: MIT\r\n\r\npragma solidity ^0.8.11;\r\n\r\ncontract Lottery {\r\n    address public owner;\r\n    address payable[] public players;\r\n    uint public lotteryId;\r\n    //uint public participationEndTime;\r\n    //uint public lotteryDuration = 180; // 3 minutes in seconds\r\n    mapping(uint => address payable) public lotteryHistory;\r\n    bool public winnerPicked;\r\n    uint public randomResult;\r\n    uint public countdownEnd;\r\n\r\n    constructor() {\r\n        owner = payable(msg.sender);\r\n        lotteryId = 1;\r\n        countdownEnd = 0; // Initialize to 0\r\n    }\r\n\r\n    modifier onlyAfterCountdownEnd() {\r\n        require(countdownEnd != 0, \"Lottery is not started\");\r\n        require(countdownEnd > 0 && block.timestamp >= countdownEnd, \"Countdown has not ended yet\");\r\n        require(!winnerPicked, \"Winner has already been picked\");\r\n        _;\r\n    }\r\n\r\n    function getRandomNumber() internal view returns (uint) {\r\n        return uint(keccak256(abi.encodePacked(block.timestamp, block.difficulty, players.length)));\r\n    }\r\n\r\n    function getWinnerByLottery(uint lottery) public view returns (address payable) {\r\n        return lotteryHistory[lottery];\r\n    }\r\n\r\n    function getBalance() public view returns (uint) {\r\n        return address(this).balance;\r\n    }\r\n\r\n    function getPlayers() public view returns (address payable[] memory) {\r\n        return players;\r\n    }\r\n\r\n    function startLottery() public onlyOwner {\r\n        require(countdownEnd == 0, \"Lottery is already running\");\r\n        countdownEnd = block.timestamp + 180; // 3 minutes countdown\r\n    }\r\n\r\n    function enter() public payable {\r\n        require(msg.value  > .01 ether, \"Enter exactly 0.15 ether to participate\");\r\n        require(countdownEnd > 0 && block.timestamp < countdownEnd, \"Cannot enter before starting or after time over\");\r\n        players.push(payable(msg.sender));\r\n    }\r\n\r\n    function pickWinner() public onlyOwner onlyAfterCountdownEnd {\r\n        require(players.length > 0, \"No players participated in the lottery\");\r\n        // require(!winnerPicked, \"Winner already picked for this round\");\r\n\r\n        randomResult = uint(keccak256(abi.encodePacked(block.timestamp, block.difficulty, players.length)));\r\n        winnerPicked = true;\r\n    }\r\n\r\n    function payWinner() public onlyOwner {\r\n        require(winnerPicked, \"Winner must be picked before paying\");\r\n        require(players.length > 0, \"No players participated in the lottery\");\r\n\r\n        uint index = randomResult % players.length;\r\n        address payable winner = players[index];\r\n\r\n        winner.transfer(address(this).balance);\r\n        lotteryHistory[lotteryId] = winner;\r\n        lotteryId++;\r\n\r\n        // Reset the state of the contract\r\n        delete players;\r\n        randomResult = 0;\r\n        winnerPicked = false;\r\n        countdownEnd = 0;\r\n    }\r\n\r\n    modifier onlyOwner() {\r\n        require(msg.sender == owner, \"Only the owner can call this function\");\r\n        _;\r\n    }\r\n}\r\n\r\n",
  "sourcePath": "D:\\Lottery\\lottery\\contracts\\Lottery.sol",
  "compiler": {
    "name": "solc",
    "version": "0.8.11+commit.d7f03943.Emscripten.clang"
  },
  "schemaVersion": "3.4.16",
  "updatedAt": "2024-03-17T04:29:44.375Z",
  "networkType": "ethereum",
  "devdoc": {
    "kind": "dev",
    "methods": {},
    "version": 1
  },
  "userdoc": {
    "kind": "user",
    "methods": {},
    "version": 1
  }
}